:100000000C9434000C943E000C943E000C943E0082
:100010000C943E000C943E000C943E000C943E0068
:100020000C943E000C943E000C943E000C943E0058
:100030000C943E000C943E000C943E000C943E0048
:100040000C943E000C943E000C943E000C943E0038
:100050000C943E000C943E000C943E000C943E0028
:100060000C943E000C943E0011241FBECFEFD4E050
:10007000DEBFCDBF0E9440000C9454000C940000E1
:100080008FEF84B920E335E785B1805885B9C90180
:100090000197F1F7C9010197F1F7C9010197F1F74C
:0C00A000C9010197F1F7F0CFF894FFCFF1
:00000001FF
